:100000000C941E030C9446030C9446030C94460374
:100010000C9446030C9446030C9446030C949512DE
:100020000C9446030C9446030C9446030C9446032C
:100030000C9446030C9446030C9446030C9446031C
:100040000C944B120C9446030C9446030C944603F8
:100050000C9446030C9446030C9446030C944603FC
:100060000C94F1120C9446030000000023002600BB
:10007000290000000000003E5B4F5B3E3E6B4F6B73
:100080003E1C3E7C3E1C183C7E3C181C577D571C79
:100090001C5E7F5E1C00183C1800FFE7C3E7FF00F2
:1000A00018241800FFE7DBE7FF30483A060E262940
:1000B000792926407F050507407F05253F5A3CE703
:1000C0003C5A7F3E1C1C08081C1C3E7F14227F22C9
:1000D000145F5F005F5F06097F017F006689956A94
:1000E000606060606094A2FFA29408047E0408101F
:1000F000207E201008082A1C08081C2A08081E1048
:100100001010100C1E0C1E0C30383E3830060E3EFF
:100110000E06000000000000005F0000000700075E
:1001200000147F147F14242A7F2A12231308646288
:1001300036495620500008070300001C22410000E9
:1001400041221C002A1C7F1C2A08083E0808008047
:1001500070300008080808080000606000201008DF
:1001600004023E5149453E00427F400072494949E0
:10017000462141494D331814127F10274545453912
:100180003C4A494931412111090736494949364616
:100190004949291E000014000000403400000008F6
:1001A0001422411414141414004122140802015999
:1001B00009063E415D594E7C1211127C7F49494926
:1001C000363E414141227F4141413E7F49494941BB
:1001D0007F090909013E414151737F0808087F00EA
:1001E000417F41002040413F017F081422417F4070
:1001F0004040407F021C027F7F0408107F3E414147
:10020000413E7F090909063E4151215E7F091929B6
:1002100046264949493203017F01033F4040403FA0
:100220001F2040201F3F4038403F631408146303E1
:10023000047804036159494D43007F414141020460
:10024000081020004141417F040201020440404067
:100250004040000307080020545478407F2844445D
:10026000383844444428384444287F385454541877
:1002700000087E090218A4A49C787F080404780072
:10028000447D40002040403D007F10284400004154
:100290007F40007C047804787C0804047838444467
:1002A0004438FC1824241818242418FC7C0804045E
:1002B00008485454542404043F44243C4040207CC7
:1002C0001C2040201C3C4030403C44281028444C1A
:1002D0009090907C4464544C4400083641000000E7
:1002E000770000004136080002010204023C262388
:1002F000263C1EA1A161123A4040207A3854545540
:100300005921555579412254547842215554784009
:1003100020545579400C1E52721239555555593991
:100320005454545939555454580000457C410002E6
:10033000457D420001457C407D1211127DF028254B
:1003400028F07C545545002054547C547C0A097F85
:100350004932494949323A4444443A324A48483099
:100360003A4141217A3A42402078009DA0A07D3D4B
:100370004242423D3D4040403D3C24FF2424487ED3
:100380004943662B2FFC2F2BFF0929F620C0887EBE
:10039000090320545479410000447D413048484AC3
:1003A00032384040227A007A0A0A727D0D19317D76
:1003B0002629292F28262929292630484D4020384A
:1003C0000808080808080808382F10C8ACBA2F1009
:1003D0002834FA00007B000008142A142222142A70
:1003E00014085500550055AA55AA55AAFF55FF55A2
:1003F000FF000000FF00101010FF00141414FF0095
:100400001010FF00FF1010F010F0141414FC001472
:1004100014F700FF0000FF00FF1414F404FC141490
:1004200017101F10101F101F1414141F001010108D
:10043000F0000000001F101010101F10101010F01E
:1004400010000000FF101010101010101010FF10FE
:10045000000000FF140000FF00FF00001F10170045
:1004600000FC04F414141710171414F404F400001E
:10047000FF00F714141414141414F700F7141414D0
:10048000171410101F101F141414F4141010F0106F
:10049000F000001F101F0000001F14000000FC14DB
:1004A0000000F010F01010FF10FF141414FF1410CF
:1004B00010101F00000000F010FFFFFFFFFFF0F022
:1004C000F0F0F0FFFFFF0000000000FFFF0F0F0F34
:1004D0000F0F3844443844FC4A4A4A347E0202062C
:1004E00006027E027E0263554941633844443C045F
:1004F000407E201E2006027E020299A5E7A5991CD7
:100500002A492A1C4C7201724C304A4D4D303048F9
:10051000784830BC625A463D3E494949007E010157
:10052000017E2A2A2A2A2A44445F444440514A44EC
:100530004040444A51400000FF0103E080FF0000BA
:1005400008086B6B083612362436060F090F0600B2
:100550000018180000001010003040FF0101001FBB
:1005600001011E00191D1712003C3C3C3C0000001C
:100570000000000103070F1F3F7F0080C0E0F0F87C
:10058000FCFEDB40A4A62EAF2000A1C8D300408D06
:10059000AED580A864726177202E20706C617920BE
:1005A0002E207265706561740053594E54480045A1
:1005B0005443482D410083009300A500AF00C400C0
:1005C000DC00F700060126014A015D018801B8013F
:1005D000EE010B024B029302BA0210037003DC031C
:1005E00017040200000000240027002A0000000079
:1005F00000250028002B0004040404040404040261
:1006000002020202020303030303030102040810AF
:10061000204080010204081020010204081020007C
:1006200000000800020100000304070000000000B1
:100630000000002200FF21001014B71A11241FBE71
:10064000CFEFD8E0DEBFCDBF11E0A0E0B1E0EEEB30
:10065000F8E302C005900D92AA34B107D9F723E060
:10066000AAE4B1E001C01D92A532B207E1F713E0A0
:10067000CDE1D3E004C02197FE010E941B1BCC31C9
:10068000D107C9F70E946B140C94521C0C94000003
:10069000833081F028F4813099F08230A9F00895F8
:1006A0008730A9F08830C9F08430B1F4809180009F
:1006B0008F7D03C0809180008F77809380000895A4
:1006C00084B58F7784BD089584B58F7DFBCF8091ED
:1006D000B0008F778093B00008958091B0008F7D37
:1006E000F9CF1F93CF93DF93282F30E0F901E15E1C
:1006F000F94F8491F901E55FF94FD491F901E9507F
:10070000FA4FC491CC23A9F0162F81110E944803FF
:10071000EC2FF0E0EE0FFF1FE351FA4FA591B491DB
:100720008FB7F894EC91111108C0D095DE23DC93BB
:100730008FBFDF91CF911F910895DE2BF8CFCF931C
:10074000DF9390E0FC01E55FF94F249189509A4FC7
:10075000FC0184918823D1F090E0880F991FFC015F
:10076000ED51FA4FA591B491FC01E351FA4FC591B7
:10077000D491623071F49FB7F8943C91822F8095A8
:1007800083238C93E8812E2B28839FBFDF91CF9109
:1007900008958FB7F894EC912E2B2C938FBFF6CF42
:1007A0003FB7F89480914B0290914C02A0914D027A
:1007B000B0914E0226B5A89B05C02F3F19F00196B7
:1007C000A11DB11D3FBFBA2FA92F982F8827BC01AB
:1007D000CD01620F711D811D911D42E0660F771FD3
:1007E000881F991F4A95D1F708958F929F92AF92D3
:1007F000BF92CF92DF92EF92FF924B015C010E9479
:10080000D0036B017C010E94D0036C197D098E0915
:100810009F09683E734081059105A8F321E0821A83
:100820009108A108B10888EEC80E83E0D81EE11C2B
:10083000F11C81149104A104B10429F7FF90EF90F9
:10084000DF90CF90BF90AF909F908F9008950895C4
:1008500008959091000189130BC0E2EEF5E0E49158
:100860009FEF90930001E13049F028F0E23061F011
:1008700060E00C94710310926E00FACF90916F00BB
:100880009D7F90936F00F4CF909170009D7F909327
:10089000700091E09093B0009091B100987F9460C7
:1008A0009093B1001092B300E3CFAF92BF92CF927A
:1008B000DF92EF92FF920F931F93CF93DF936C0120
:1008C0007B018B01040F151FEB015E01AE18BF0801
:1008D000C017D10759F06991D601ED91FC910190B3
:1008E000F081E02DC6010995892B79F7C501DF91CB
:1008F000CF911F910F91FF90EF90DF90CF90BF901D
:10090000AF900895EF92FF920F931F93CF93DF93D1
:10091000EC01EC80FD806E157F050CF070C057FF78
:1009200004C0240F351F50E040E08E819F81FA0102
:10093000E20FF31F8E179F071CF49C01241B350B3D
:10094000121613060CF05BC0922F842F86958695A5
:1009500086958E9DD0018F9DB00D11246A0F7B1F4F
:10096000AF8DB8A1A60FB71F477049F188E0841B6F
:10097000482F682F70E0FB01E658FA4FE4912817E2
:1009800008F063C0621B71092FEF30E002C035959B
:1009900027956A95E2F7E2230130110539F0B0F1AD
:1009A0000230110561F58C91E82702C08C91E82B8B
:1009B000EC93941720F12C813D81A20FB31FE92FF6
:1009C000E41BE83078F00230110521F58E2F9C9160
:1009D00090959C932C813D81A20FB31F8850883045
:1009E000B0F7E770EE2359F0F0E0EE58FA4FE491DB
:1009F00001301105F9F010F10230110519F1DF9104
:100A0000CF911F910F91FF90EF900895E0958C91F9
:100A1000E823CECF81E00115110509F480E081952E
:100A20009E2F8C932C813D81A20FB31F985098303C
:100A3000C0F7D7CF8C91E82BEC93E1CFE0958C9168
:100A4000E823FACF8C91E827F7CF0130110509F49C
:100A5000ADCFE0F20230110509F4A5CFAE0DBF1DF8
:100A6000AECF0F931F93CF93DF9377FF04C0260F72
:100A7000371F70E060E0DC011496CD91DC91FB0142
:100A8000E20FF31FCE17DF071CF49E01261B370B66
:100A9000121613064CF5FA0157FD3796A3E0F595AB
:100AA000E795AA95E1F7EC9FD001ED9FB00DFC9F73
:100AB000B00D11246A0F7B1FDC015F96ED91FC9154
:100AC000E60FF71F4770552781E090E001C0880FBF
:100AD0004A95EAF7482F0130110559F0A8F02E0F7A
:100AE0003F1F02301105E1F0DF91CF911F910F916F
:100AF00008952E0F3F1FE217F307B1F38191DF0135
:100B00001197842B8C93F7CF80952E0F3F1FE21700
:100B1000F30751F39191DF01119798239C93F7CF3D
:100B2000E217F30709F38191DF01119784278C9372
:100B3000F7CF0F931F93FA01DC0156964C9156970D
:100B40004230E9F04330A1F1413061F514964D9106
:100B50005C91DA01AE1BBF0BFD01E21BF30B77FDCD
:100B60000BC0DC0116964D915C916417750724F457
:100B7000AB01BF010E9431051F910F91089514969A
:100B80004D915C91DA01A61BB70BBD016150710953
:100B9000DC0116964D915C91DA01AE1BBF0BFD0195
:100BA000E21BF30B77FDE8CFAF010E948204E4CF94
:100BB00016964D915C91DA01A61BB70BBD016150F1
:100BC0007109CDCF0F931F93FA01DC0156964C911A
:100BD00056974230A9F0433091F1413019F51496FF
:100BE0004D915C91DA01AE1BBF0BFD013197F7FD12
:100BF00004C0AB01BF010E9482041F910F910895B0
:100C000014964D915C91DA01A61BB70BBD01DC0176
:100C100016964D915C91DA01AE1BBF0BFD01319729
:100C2000621B730BF7FDE9CFDC0116964D915C91C9
:100C3000E417F50714F7AF010E943105DECF1696D1
:100C40004D915C91DA01A61BB70BBD01621B730BC2
:100C5000CECFFC0177FD64C0808591856817790748
:100C60000CF05EC057FD5CC082859385481759071C
:100C70000CF056C086898230B1F0833029F1813082
:100C800041F484819581841B950BAB01BC016150BB
:100C900071092130310509F108F443C022303105D2
:100CA00009F463C0089584819581DC01A61BB70B0C
:100CB000BD016150710986819781DC01A41BB50BD0
:100CC000AD0141505109E5CF86819781861B970B75
:100CD000BA01AC0141505109DCCFCA0157FD07965A
:100CE000A3E095958795AA95E1F7A481B5818A9FA0
:100CF00090018B9F300D9A9F300D1124620F731F4E
:100D0000078CF0A1E02DE60FF71F4770552721E073
:100D100030E001C0220F4A95EAF78081822B808360
:100D20000895CA0157FD079633E0959587953A9542
:100D3000E1F7A481B5818A9F90018B9F300D9A9F26
:100D4000300D1124620F731F078CF0A1E02DE60F08
:100D5000F71F4770552781E090E001C0880F4A9542
:100D6000EAF7809590818923DACFCA0157FD07966B
:100D700023E0959587952A95E1F7A481B5818A9F0F
:100D800090018B9F300D9A9F300D1124620F731FBD
:100D9000078CF0A1E02DE60FF71F4770552721E0E3
:100DA00030E001C0220F4A95EAF780818227B7CF51
:100DB00008958EBD00000DB407FEFDCF8EB50895D9
:100DC0008CBD9DBD08950895FC016370668B848180
:100DD000958126813781613039F0633029F0918720
:100DE000808733872287089531872087938782877A
:100DF00008952F923F924F925F926F927F928F92BF
:100E00009F92AF92BF92CF92DF92EF92FF920F9399
:100E10001F93CF93DF93CDB7DEB76A970FB6F894E1
:100E2000DEBF0FBECDBF9A8F898F7A8369834A0157
:100E3000D22E18870F833701BC2CDC0159962D91D7
:100E40003C915A972115310509F015C118968D91DD
:100E50009C911997681779070CF0D7C11A968D9154
:100E60009C91481759070CF0D0C14C2C512CB6E07E
:100E7000CB9E600D711D11247C876B87161617069B
:100E80000CF0C3C1EA2DF0E0FA87E98793E0EE0F9A
:100E9000FF1F9A95E1F7F88BEF87CF01840F951F1D
:100EA000181619060CF0B1C1A98DBA8D58968C91FF
:100EB000811104C0BFEABD1508F4D394A98DBA8D81
:100EC000ED91FC9111970284F385E02DCD010995F8
:100ED000B5E0DB9EC0011124E981FA81FC83EB833C
:100EE000312C212C9C012E583F4F388F2F8B4A2DAF
:100EF00050E05E8B4D8BEF89F88DE20DF31D449130
:100F00009E828D82D12CC12C69817A81620D731DE4
:100F10007A8B698B842F90E09C8B8B8BE98DFA8D7B
:100F2000A081B18140FF82C0F1E0BF126FC0AF125B
:100F30006DC01C96ED91FC912F813885A4014C0D5C
:100F40005D1D69897A89898D9A8D0995EB89FC895E
:100F5000F595E7954E2F5FEFC51AD50A6D817E8115
:100F60008D899E89680F791F7E836D8398E0C916ED
:100F7000D10481F6AFEF2A1A3A0AEB81FC81E40D25
:100F8000F51DFC83EB83F5E02F16310409F0B3CF98
:100F90002F81388526153705B9F0A98DBA8DED91C9
:100FA000FC91B1E0BB1257C0AB1255C069817A8188
:100FB0006B5F7F4F0088F189E02D830128E030E0EE
:100FC000A401898D9A8D0995A98DBA8DED91FC9119
:100FD00011970688F789E02DCD016A960FB6F8942F
:100FE000DEBF0FBECDBFDF91CF911F910F91FF905C
:100FF000EF90DF90CF90BF90AF909F908F907F90B9
:101000006F905F904F903F902F9009941E96ED91B6
:10101000FC91EF80F88409851A8592014D815E81EB
:101020006B817C81898D9A8D099590CF2F81388530
:101030002615370509F48ACF31E0B31207C0A31291
:1010400005C01C96ED91FC91930178CF1E96ED9111
:10105000FC917301E0CF6B857C856419750906846A
:10106000F785E02D73010F8518899201A401898D00
:101070009A8D0995A9CFF9013496949132974591AB
:101080005491D91AB7E0DB9E400D511D1124F9018E
:10109000259134913C8B2B8BFA0125903490FA01E9
:1010A0003296749031963491398B329664903196A1
:1010B000449041E04C1518F04A1508F07FC0662DA9
:1010C000062C000C770B7C836B83842D042C000C86
:1010D000990B9E838D83A98DBA8DED91FC9111970B
:1010E0000284F385E02DCD010995512CD12CC12C22
:1010F000EA2DF0E0FA87E9872B2D30E03C872B873B
:10110000A401440D511D47FC5A95588F4F8B69819E
:101110007A81660D711D67FC7A957E876D87798966
:10112000C71608F051CF2C2D30E04D815E81420F63
:10113000531FA985BA854A9FC0014B9F900D5A9FA6
:10114000900D1124FC01E80DF91DF88BEF87852D1A
:10115000612C4F89588D420F531F5E8B4D8B671446
:1011600008F050C044244394480E877041F4C101F4
:101170000196EB89FC89E20DF31DD4901C01D7FE8A
:1011800019C0A98DBA8DED91FC91662D70E0B1E08A
:10119000BB1219C0AB1217C02D853E85620F731F9D
:1011A0000484F585E02D2F8138854D895E89898DF0
:1011B0009A8D0995DD0C6394842DD1CF1E821D82FA
:1011C0001C821B8288CF4B815C81640F751FAB85AD
:1011D000BC856A9FC0016B9F900D7A9F900D112472
:1011E00069817A81680F791F0684F785E02DEF8089
:1011F000F88409851A859D014F855889898D9A8DB6
:101200000995D8CF570CC3948ACF6A960FB6F89435
:10121000DEBF0FBECDBFDF91CF911F910F91FF9029
:10122000EF90DF90CF90BF90AF909F908F907F9086
:101230006F905F904F903F902F9008958F929F9264
:10124000AF92CF92EF92FF920F931F93CF93DF93C2
:10125000EC01262F898D9A8D009709F051C06A30D4
:10126000D1F41D861C868D8948E0849F900111244D
:101270008E859F85820F931F9F878E8781E090E0E8
:10128000DF91CF911F910F91FF90EF90CF90AF9092
:101290009F908F9008956D3089F3CC88AD888F89A9
:1012A0008823C1F08C859D8536E0C39E800D911DFD
:1012B0001124488559854817590764F44E855F8580
:1012C0001D861C8638E0A39EC0011124840F951F43
:1012D0009F878E87EA88FB88088919894E855F85F4
:1012E0006C857D85CE010E94F9062C898C859D85B3
:1012F00046E0249F800D911D11249D878C87BECFD1
:101300006A3069F41D861C86FC013896E4912D89AB
:101310008E859F85E29F800D911D1124ADCF6D308C
:1013200009F4ACCFFC0134963491631708F4A6CFCE
:101330003296E491E61708F4A1CFFC01329685902D
:101340009490462F431B342F47E0349F800C911C10
:101350001124F401329634913196E4913323A9F1AA
:10136000EE2399F1CC88F4013596E491AD884F894C
:10137000442301F10E2E000CFF0BE30FF11DCE9E56
:10138000A001CF9E500D11246C857D85460F571FFF
:1013900068857985641775076CF44E855F851D86B1
:1013A0001C86FC013896E491AE9E400D511D11241F
:1013B0005F874E87EA88FB88088919894E855F8593
:1013C0006C857D85CE010E94F906F4013496E49186
:1013D0002C898C859D85E29F800D911D11248DCFD8
:1013E0000F931F93CF93DF938C01D0E0C0E0F801FF
:1013F000EC0FFD1F6491662341F081EE92E00E94A4
:101400001E09892B11F02196F2CF42E050E067E4EB
:1014100071E081EE92E00E9455048C0F9D1FDF91D8
:10142000CF911F910F9108956F927F928F929F920B
:10143000AF92BF92CF92DF92EF92FF920F931F93E2
:10144000CF93DF93EC016B015A0139014801E88128
:10145000F9810284F385E02D0995E881F9810288FC
:10146000F389E02D87019301A501B601CE0109950D
:10147000A501480D591D41505109E881F9810288A3
:10148000F389E02D9301B601CE010995E881F98138
:101490000088F189E02D9401A501B601CE010995DE
:1014A000C60CD71CB60161507109E881F98100882A
:1014B000F189E02D9401A501CE010995E881F9811A
:1014C0000688F789E02DCE01DF91CF911F910F9112
:1014D000FF90EF90DF90CF90BF90AF909F908F9054
:1014E0007F906F9009946F927F928F929F92AF92AC
:1014F000BF92CF92DF92EF92FF920F931F93CF9301
:10150000DF935C01EB016A01490138018701DC01CD
:10151000ED91FC916217730719F5641675062CF0AE
:10152000962D872D3A01C92ED82E960126193709F6
:101530002F5F3F4F048CF58DE02DA301BE01C50147
:101540000995DF91CF911F910F91FF90EF90DF9060
:10155000CF90BF90AF909F908F907F906F900895A5
:101560004615570591F42617370724F0892D4B01AE
:10157000C22FD82F9E01281939092F5F3F4F068CA3
:10158000F78DE02DA601B401DACF0284F385E02DBA
:101590000995D501ED91FC910488F589E02D830131
:1015A0009401A601BE01C5010995D501ED91FC91FB
:1015B0000688F789E02DC501DF91CF911F910F912A
:1015C000FF90EF90DF90CF90BF90AF909F908F9063
:1015D0007F906F900994EF92FF920F931F93DC011D
:1015E0001A960D911C911B9718962D913C91199765
:1015F000ED91FC9100A0F1A1E02D7B0150E040E0D5
:1016000070E060E009951F910F91FF90EF900895B1
:101610004F925F926F927F928F929F92AF92BF9202
:10162000CF92DF92EF92FF920F931F93CF93DF93AE
:101630006C012B015A0139014801DC01ED91FC914B
:101640000284F385E02D0995E201640C751CD60136
:10165000ED91FC91C615D7055CF40088F189E02D69
:1016600087019401A501BE01C60109952196EFCF1E
:101670000688F789E02DC601DF91CF911F910F9168
:10168000FF90EF90DF90CF90BF90AF909F908F90A2
:101690007F906F905F904F9009948F929F92AF923E
:1016A000BF92CF92DF92EF92FF920F931F93CF934F
:1016B000DF93EC015B014A016901E881F981028451
:1016C000F385E02D099595012C0D3D1D2150310923
:1016D000E881F9810488F589E02D78018401A4016D
:1016E000B501CE010995E881F9810688F789E02DD9
:1016F000CE01DF91CF911F910F91FF90EF90DF907E
:10170000CF90BF90AF909F908F9009948F929F92AF
:10171000AF92BF92CF92DF92EF92FF920F931F93FF
:10172000CF93DF93EC015B014A0169017801E88105
:10173000F9810284F385E02D0995C80CD91C860136
:1017400001501109E881F9810488F589E02D95019E
:10175000A401B501CE010995E881F9810688F789D0
:10176000E02DCE01DF91CF911F910F91FF90EF906F
:10177000DF90CF90BF90AF909F908F900994089585
:10178000EF92FF920F931F93DC01ED91FC9100A06B
:10179000F1A1E02D09951F910F91FF90EF90089511
:1017A0000F931F93DC01ED91FC91068CF78DE02DDA
:1017B00009951F910F9108950F931F93DC01ED91EF
:1017C000FC91048CF58DE02D09951F910F910895E2
:1017D000DC01ED91FC910084F185E02D09942F92BC
:1017E0003F924F925F926F927F928F929F92AF92B1
:1017F000BF92CF92DF92EF92FF920F931F93CF93FE
:10180000DF9300D000D000D0CDB7DEB73C016A0135
:101810003E832D83FC82EB825801A41AB50AB7FEE1
:1018200003C0B194A194B1088D809E80861A970A56
:1018300097FE03C09194819491088A149B045CF0F4
:10184000902F812F0D811E819D838E839C2D8D2D48
:101850006B01692F782F0C151D055CF09D818E8121
:101860007E836D83692F782F902F812F8601C92E5B
:10187000D82E1601201A310A2B012D813E81421AE1
:10188000530A57FE03C0519441945108710137FE29
:1018900003C03FEFE31AF30AF594E7948D819E812C
:1018A000861797075CF5A1E0B0E0BA83A983C0165C
:1018B000D1064CF1D301ED91FC910484F585E02D26
:1018C0002B813C81A8016D817E818A149B041CF0D0
:1018D0004D815E81B801C3010995E418F508F7FE52
:1018E0000AC02D813E8189819A81280F391F3E834C
:1018F0002D83E20CF31C0F5F1F4FD9CF2FEF3FEF6B
:101900003A832983D4CF26960FB6F894DEBF0FBE54
:10191000CDBFDF91CF911F910F91FF90EF90DF909E
:10192000CF90BF90AF909F908F907F906F905F907F
:101930004F903F902F90089508952091B001260F69
:101940003327331F21323105ECF42091D401FC01FF
:1019500090E080E0243069F082E00895A091B00129
:101960002191AC0140575E4FA40FB52FB11D2C93B0
:101970000196861798F38091B001680F6093B001CB
:1019800080E0089581E008951092D40181E0809371
:10199000D6011092D50161E082E10E94710361E0FD
:1019A00083E10E947103E9EBF0E080818E7F808308
:1019B00080818D7F808388E48093B80085E4809364
:1019C000BC000895CF93DF9391E090938F0188231B
:1019D000B9F0C091B800D091BA008091BC008A7B68
:1019E0008093BC0060E082E10E94710360E083E1CB
:1019F0000E9471030E94C40CD093BA00C093B80037
:101A0000DF91CF910895E09100028091FF01E817E6
:101A100030F4F0E0E659FE4F808190E008958FEFBA
:101A20009FEF0895909100028091FF012FEF3FEF0B
:101A3000981748F4E92FF0E0E659FE4F208130E096
:101A40009F5F90930002C90108958091FF019091DA
:101A50000002891B990B0895CF92DF92EF92FF92BB
:101A60000F931F93CF93DF937C01CB018A012091C9
:101A7000D402222389F0EB016B01C40ED51ECC15D4
:101A8000DD0569F06991D701ED91FC910190F0813C
:101A9000E02DC7010995F3CF642F0E949D0CC8016A
:101AA000DF91CF911F910F91FF90EF90DF90CF903A
:101AB0000895CF93DF931F92CDB7DEB7698320914E
:101AC000D4022223F9F02091D102203258F021E0F3
:101AD00030E0FC013383228390E080E00F90DF91BF
:101AE000CF9108958091D202E82FF0E0E65BFE4F9F
:101AF000998190838F5F8093D2028093D10281E09D
:101B000090E0ECCF61E0CE0101960E949D0CF7CFF2
:101B1000CF92DF92EF92FF920F931F93CF93DF93B9
:101B2000D091D10281E0D13208F09CC0C091D302A3
:101B30000E94D0036B017C018091D40181116CC0A3
:101B400082E08093D40181E08093D6018FEF80936F
:101B5000D3011092F801D093F701AAE4B1E0E7EDC8
:101B6000F1E080E0D8138DC01092F9018091F90165
:101B7000CC0FC82BC093F9018091D501813009F0B9
:101B800084C01092D5010E94D0036B017C0180912A
:101B9000F9018093BB0080918B0190918C01A09101
:101BA0008D01B0918E01892B8A2B8B2BA1F00E9485
:101BB000D00300918B0110918C0120918D01309107
:101BC0008E016C197D098E099F09061717072807D2
:101BD000390708F442C08091BC0083FDD8CF85EC62
:101BE0008093BC000E94D0036B017C018091D401E2
:101BF000823009F44CC08091D3018F3F09F469C051
:101C00008091D301803209F466C08091D301803382
:101C100009F463C084E026C080918B0190918C010F
:101C2000A0918D01B0918E01892B8A2B8B2B09F409
:101C300083CF0E94D00300918B0110918C012091E1
:101C40008D0130918E016C197D098E099F0906174F
:101C500017072807390708F06FCF80918A010E9483
:101C6000E20C85E01092D2021092D1021092D402BE
:101C7000DF91CF911F910F91FF90EF90DF90CF9068
:101C800008959D9191938F5F6DCF85EEA9CF80913F
:101C90008B0190918C01A0918D01B0918E01892BC7
:101CA0008A2B8B2B09F4A2CF0E94D00300918B01C9
:101CB00010918C0120918D0130918E016C197D095C
:101CC0008E099F09061717072807390708F08ECFD6
:101CD000C4CF80E0C7CF82E0C5CF83E0C3CFEF920F
:101CE000FF920F931F93CF93DF937C01C62F8091B8
:101CF000FE029091FF02009709F459C0209102035F
:101D000031E03093D4022093D3021092D202109289
:101D1000D102DC01ED91FC910190F081E02D60E0B9
:101D200009958701EE24E394F12CD1E0C150809114
:101D3000FE029091FF02CF3F91F1B0E2EB16F10469
:101D4000D8F00E94880D8091FE029091FF022091B0
:101D50000203D093D4022093D3021092D2021092A5
:101D6000D102DC01ED91FC910190F081E02D60E069
:101D70000995EE24E394F12C8091FE029091FF02EC
:101D8000F8016491DC01ED91FC910190F081E02D6E
:101D90000995BFEFEB1AFB0A0F5F1F4FC7CFDF910B
:101DA000CF911F910F91FF90EF900C94880DE091CF
:101DB0000E03F0910F039081809114038095892385
:101DC00080838701C15008F438C0F80184912091C4
:101DD000FC023091FD02232B29F00E94D9060F5FEF
:101DE0001F4FF0CF28E030E040E8E0910A03F09187
:101DF0000B0390911203582F5423D9F05081952B47
:101E00009083E0910C03F0910D03908150911303A6
:101E1000952B9083E0910C03F0910D0350819091EC
:101E20001303909595239083469521503109E9F647
:101E3000D6CF508190959523E3CFDF91CF911F911D
:101E40000F91FF90EF9008951F93CF93DF93EC01D4
:101E50008D8D9E8D009721F1162F29A131E03093B1
:101E6000D4022093D3021092D2021092D102DC014C
:101E7000ED91FC910190F081E02D60E009958D8D50
:101E80009E8DDC01ED91FC910190F081E02D612FA0
:101E900009958D8D9E8DDF91CF911F910C94880DAA
:101EA000ADA5BEA59C918BA9809589238C938B8D24
:101EB0009C8D892B31F0862FDF91CF911F910C944F
:101EC000D90628E030E080E8A9A5BAA599A9462F4F
:101ED0004823C1F04C91942B9C93ABA5BCA59C913D
:101EE0004AA9942B9C93ABA5BCA54C919AA990951B
:101EF00094239C9386952150310931F7DF91CF913E
:101F00001F9108954C9190959423E6CFDF92EF9224
:101F1000FF920F931F93CF93DF938091FE029091D6
:101F2000FF02892B09F4A5C02091160330911703F5
:101F3000409118035091190360E074E284EF90E03F
:101F40000E94DA1A205131094109510956954795E5
:101F5000379527952093B80064E083E396E00E94CC
:101F60006F0E8091E5029091E6028034910509F0B0
:101F700097C060E281EE92E00E94240F6091E5023A
:101F8000615E81EE92E00E94240F2091E702309181
:101F9000E802C901079697FD079633E09595879566
:101FA0003A95E1F72091E5023091E602829F8001A7
:101FB000839F100D929F100D1124C0910003D091AA
:101FC00001038091FE029091FF020C0F1D1F0097EC
:101FD00009F498C02091020331E03093D402209399
:101FE000D3021092D2021092D102DC01ED91FC9149
:101FF0000190F081E02D60E40995EE24E394F12C4A
:10200000DD24D3948091FE029091FF020C171D07EE
:1020100009F44FC0B0E2EB16F104D8F00E94880D2D
:102020008091FE029091FF0220910203D092D4028F
:102030002093D3021092D2021092D102DC01ED91D2
:10204000FC910190F081E02D60E40995EE24E39489
:10205000F12C8091FE029091FF026991DC01ED91DB
:10206000FC910190F081E02D0995BFEFEB1AFB0A7E
:10207000C9CF8091FC029091FD02892B31F08091B3
:102080001F03909120030E94E006E0911003F0915D
:1020900011039081809115038095892380835CCF03
:1020A00060E081EE92E00E94240F6091E5026150B1
:1020B00068CF0E94880D8091FE029091FF02892BCB
:1020C00009F461C020911A0330911B0340911C0355
:1020D00050911D0360E074E284EF90E00E94DA1AF0
:1020E0002051310941095109569547953795279552
:1020F0002093B800DF91CF911F910F91FF90EF9047
:10210000DF900895E0910E03F0910F03808190918C
:102110001403892B80830C171D0769F28991209184
:10212000FC023091FD02232B19F00E94D906F3CF57
:1021300028E030E040E8E0910A03F0910B03909131
:102140001203582F5423D9F05081952B9083E0919E
:102150000C03F0910D03908150911303952B908304
:10216000E0910C03F0910D03508190911303909531
:1021700095239083469521503109E9F6CCCF5081C3
:1021800090959523E3CFE0911003F09111038081A6
:1021900090911503892B8083ADCF1F93CF93DF934D
:1021A000EC01162F8D8D9E8D892BB1F12DA93EA9A5
:1021B0004FA958AD60E074E284EF90E00E94DA1A13
:1021C0002051310941095109569547953795279571
:1021D0002093B80066EA111167EACE010E94240F2D
:1021E0008D8D9E8D892B41F129AD3AAD4BAD5CAD06
:1021F00060E074E284EF90E00E94DA1A2051310925
:102200004109510956954795379527952093B80070
:10221000DF91CF911F9108958B8D9C8D892B21F09B
:102220008EAD9FAD0E94E006EFA5F8A990818CA924
:10223000809589238083CECFEFA5F8A980819CA9C2
:10224000892B8083E5CF90E080E00895CF92DF92E4
:10225000EF92FF920F931F93CF93DF93EC016A01EC
:102260007B01288130E0F901E15EF94F8491F901A9
:10227000E55FF94F1491F901E950FA4F04910023F9
:1022800079F081110E944803E02FF0E0EE0FFF1F6C
:10229000E859FF4FA591B491EC911E2381E009F418
:1022A00080E09A81981729F08A83CB82DC82ED82C4
:1022B000FE824B815C816D817E81C41AD50AE60A5B
:1022C000F70A9CE0C916D104E104F10438F09981C1
:1022D000981721F08983811101C01F82DF91CF916E
:1022E0001F910F91FF90EF90DF90CF900895CF93C3
:1022F000DF93EC01862F688362E00E949F0381E0F8
:1023000089838A831B821C821D821E828F83DF91B8
:10231000CF9108952091E7023091E802C901079614
:1023200097FD079623E0959587952A95E1F72091EB
:10233000E5023091E602829FA001839F500D929F9B
:10234000500D112470E060E0809100039091010332
:102350000C944B1C0F931F93CF93DF930E948A1111
:1023600001E512E0D0E0C0E0F80141918F014F3F5C
:1023700041F050E021E030E0BE0181EE92E00E94A9
:1023800029062196C038D10579F7C0910101D09175
:10239000020100914F021091500221E030E0AE01A5
:1023A000B80181EE92E00E94290610161106ECF0A9
:1023B00021E030E0AE01B8016F5F7F4F81EE92E027
:1023C0000E9429061C161D06F4F0AE014F5F5F4FF8
:1023D00021E030E0B80181EE92E00E942906DF9111
:1023E000CF911F910F910C94860F21E030E0AE0148
:1023F000B8016150710981EE92E00E9429060F3701
:10240000110504F7D5CF21E030E0AE01415051096C
:10241000B80181EE92E00E942906CF33D105FCF687
:10242000D4CF0E94461C85ED8093BC0080918B0127
:1024300090918C01A0918D01B0918E010796A11D04
:10244000B11D23E0B695A795979587952A95D1F765
:102450002091BC0024FD03C01092D4010895409146
:102460008B0150918C0160918D0170918E01452BF3
:10247000462B472B69F30097A105B10541F02AE2ED
:102480002A95F1F700C00197A109B109E1CF809128
:102490008A010C94E20C1F920F920FB60F92112436
:1024A0002F933F938F939F93AF93BF938091470256
:1024B00090914802A0914902B0914A02309146029F
:1024C00023E0230F2D3758F50196A11DB11D209350
:1024D00046028093470290934802A0934902B0932A
:1024E0004A0280914B0290914C02A0914D02B09112
:1024F0004E020196A11DB11D80934B0290934C0298
:10250000A0934D02B0934E02BF91AF919F918F91D6
:102510003F912F910F900FBE0F901F90189526E8B6
:10252000230F0296A11DB11DD2CF1F920F920FB69D
:102530000F9211242F933F934F935F936F937F9349
:102540008F939F93AF93BF93EF93FF938091060276
:1025500090910702A0910802B0910902892B8A2B61
:102560008B2BD1F190910102E0910202F0910302D4
:102570008081892780838091060290910702A09133
:102580000802B0910902181619061A061B069CF4D7
:102590008091060290910702A0910802B091090271
:1025A0000197A109B1098093060290930702A093B5
:1025B0000802B0930902FF91EF91BF91AF919F91F3
:1025C0008F917F916F915F914F913F912F910F90DC
:1025D0000FBE0F901F901895809100010E94290452
:1025E000EACF1F920F920FB60F9211242F933F93B1
:1025F0004F935F936F937F938F939F93AF93BF930B
:10260000EF93FF938091B900887F803609F44AC028
:10261000F0F5883209F4A7C018F5803109F49BC0A1
:10262000B8F4882309F4F9C0883009F494C0FF9104
:10263000EF91BF91AF919F918F917F916F915F913A
:102640004F913F912F910F900FBE0F901F901895B3
:10265000883109F488C0803251F78093D30114C0C7
:10266000803409F49DC040F48033B9F38833F9F61F
:102670008093D30185ECB0C0803509F485C08835DE
:1026800009F496C0883499F60E941312D0CF883985
:1026900009F48CC038F5883729F050F4883611F0E9
:1026A000803729F683E08093D4011092D20157C07D
:1026B000883809F47BC0803919F0803809F0B7CF29
:1026C0008091D201803208F071C0E091D20181E0A6
:1026D0008E0F8093D2018091BB00F0E0EE54FE4F4C
:1026E00080833DC0803B39F0E0F4803A09F479C042
:1026F000883A09F09CCF84E08093D4011092B10114
:102700001092B001E091FD01F091FE0109958091D8
:10271000B00181110FC081E08093B001109290014F
:1027200009C0803C09F4A6CF883C09F4A3CF883BBC
:1027300009F07DCFE091B10181E08E0F8093B1016E
:10274000F0E0E057FE4F80818093BB009091B10193
:102750008091B00129C08091F9018093BB0085EC84
:102760008093BC0064CF9091F8018091F701981795
:1027700058F5E091F80181E08E0F8093F801F0E0C8
:10278000E952FE4F8081E9CFE091F80181E08E0FA0
:102790008093F8018091BB00F0E0E952FE4F808306
:1027A0009091F8018091F7019817C8F285E8D8CF89
:1027B000E091F80181E08E0F8093F8018091BB00D9
:1027C000F0E0E952FE4F80838091D60181115CCF09
:1027D00081E08093D50184EA8093BC001092D401FB
:1027E00026CF85EC8093BC001092D4018091D20159
:1027F000803230F4E091D201F0E0EE54FE4F1082CE
:102800006091D20170E0E091FB01F091FC0182EB5C
:1028100091E009951092D2010ACF1092D30134CFE2
:10282000A5EDB2E013961C921E92129748EE53E06B
:1028300060E070E014964D935D936D937C931797D1
:102840008DE091E011969C938E93E1EEF2E013827D
:10285000128220E830E03583248380E490E097837F
:1028600086833187208793878287168A1586148608
:102870001786168681E0858B848B2FEF3FEF338B95
:10288000228B318B208B878B108E128E118E8FE1D5
:1028900091E091838083148E138EB68FA58F10A242
:1028A000178E8FEF84A385A386A387A380A780E8D4
:1028B0009AE1A6E0B0E085AB96ABA7ABB0AF80EAFB
:1028C00096E8A1E0B0E081AF92AFA3AFB4AF80E5EE
:1028D00086AF17AE0895CF93DF9300D000D0CDB769
:1028E000DEB7789484B5826084BD84B5816084BD90
:1028F00085B5826085BD85B5816085BD80916E009E
:10290000816080936E0010928100809181008260CE
:10291000809381008091810081608093810080910B
:1029200080008160809380008091B10084608093FA
:10293000B1008091B00081608093B00080917A00F6
:10294000846080937A0080917A00826080937A001C
:1029500080917A00816080937A0080917A0080680B
:1029600080937A001092C100109200021092FF0131
:102970001092D2021092D1020E94C40C87E294E01D
:102980009093FE018093FD0188E294E09093FC0116
:102990008093FB018CE08093B800809100039091BC
:1029A0000103892BD1F52091E7023091E802C9019A
:1029B000079697FD079633E0959587953A95E1F749
:1029C0002091E5023091E602AC01429FC001439F95
:1029D000900D529F900D11240E94211B9093010392
:1029E00080930003892BC9F461E08DE00E949F036E
:1029F00061E08DE00E94710368E770E080E090E0A4
:102A00000E94F50360E08DE00E94710368E770E0CA
:102A100080E090E00E94F503EBCF0E948A1182E0F3
:102A2000809303038091FE029091FF02892B09F4A9
:102A3000C6C18CE380930203109200021092FF0142
:102A40001092D2021092D1020E94C40C87E294E04C
:102A50009093FE018093FD0188E294E09093FC0145
:102A60008093FB018091090387FD1EC061E00E94F5
:102A70009F0361E0809109030E94710361E070E0AF
:102A800080E090E00E94F50360E0809109030E94DD
:102A900071036AE070E080E090E00E94F50361E07D
:102AA000809109030E9471038091FE029091FF02C0
:102AB000892B09F445C220911603309117034091E8
:102AC00018035091190360E074E284EF90E00E94D3
:102AD000DA1A205131094109510956954795379520
:102AE00027952093B80064E080E995E00E946F0E7E
:102AF0006091E702615081EE92E00E94240F64E051
:102B00008CE895E00E946F0E8091030360E18130B4
:102B100009F064E181EE92E00E94240F64E088E80D
:102B200095E00E946F0E8FE880931E038091E5026E
:102B30009091E6028038910509F01BC28091E7026E
:102B40009091E8028034910509F03DC28091030321
:102B5000813009F00CC28FE980931E0392E19983C2
:102B60006AED81EE92E00E94240F698181EE92E08D
:102B70000E94240F61E881EE92E00E94240F609190
:102B80001E0381EE92E00E94240F69ED81EE92E037
:102B90000E94240F8091030362E2813009F061EF0B
:102BA00081EE92E00E94240F66E082E895E00E94A8
:102BB0006F0E8091FE029091FF02892B09F40FC2E3
:102BC00020911A0330911B0340911C0350911D0367
:102BD00060E074E284EF90E00E94DA1A205131093B
:102BE0004109510956954795379527952093B80087
:102BF00062E08EE392E00E94771163E086E392E068
:102C00000E94771164E08EE292E00E94771165E005
:102C100086E292E00E94771166E08EE192E00E94E7
:102C2000771167E086E192E00E94771161E089E028
:102C30000E949F03E1E5F2E080E09FEF91938F5FB8
:102C40008038E1F70E948A1181E090E09093F402CD
:102C50008093F3029093F2028093F10282E08093DA
:102C6000F5028093F60286E090E09093EE02809366
:102C7000ED0288E090E09093F0028093EF028FEAFB
:102C800095E00E94F0098EE190E09093EE0280932F
:102C9000ED028CE190E09093F0028093EF0289EADC
:102CA00095E00E94F00981E08093F5028093F6029E
:102CB0008AE090E09093EE028093ED0284E390E04E
:102CC0009093F0028093EF0284E995E00E94F0096E
:102CD0000E94860F60E476E080E090E00E94F503B9
:102CE000E0914F02F0915002EF5AFD4F80910101A7
:102CF00080830E94AA1188248A94982C54018FB74B
:102D0000F8944090470250904802609049027090B9
:102D10004A028FBFB301A2018EE392E00E94261106
:102D2000B301A20186E392E00E942611B301A20141
:102D30008EE292E00E942611B301A20186E292E0A7
:102D40000E942611B301A2018EE192E00E94261199
:102D5000B301A20186E192E00E94261180911F0238
:102D600081116CC3D0902502D11068C381E080939B
:102D7000250281E592E09A838983312C212C8FB73B
:102D8000F894409147025091480260914902709135
:102D90004A028FBF86E192E00E94261180911702BD
:102DA000811127C180911D02811123C181E080938F
:102DB0001D0289E00E9429040E94AA11D0C361E08B
:102DC000809107030E949F0361E0809108030E94A5
:102DD0009F0380910703082E000C990BFC01E9501A
:102DE000FA4FE491F0E0EE0FFF1FE351FA4F259107
:102DF000349130930F0320930E03FC01E55FF94FEC
:102E0000E491E093140380910803082E000C990BC1
:102E1000FC01E950FA4FE491F0E0EE0FFF1FE3519F
:102E2000FA4FA591B491B0931103A0931003FC0144
:102E3000E55FF94FE491E09315038C91E82BEC9357
:102E40008091FC029091FD02892B09F436C05FB796
:102E50005983F8948091FA01811127C0E1E0F6E0EE
:102E60008491E5E1F6E09491E82FF0E0EE0FFF1F8A
:102E7000ED51FA4FA591B491EC91E92321F461E071
:102E80008AE00E94710361E08AE00E949F038CB592
:102E900080618CBD8CB580648CBD61E08DE00E944A
:102EA0009F0361E08BE00E949F038091FA018F5F96
:102EB0008093FA0189818FBFD5CD61E080910503B0
:102EC0000E949F0361E0809106030E949F0380910E
:102ED0000503082E000C990BFC01E950FA4FE49110
:102EE000F0E0EE0FFF1FE351FA4F2591349130933C
:102EF0000B0320930A03FC01E55FF94FE491E09393
:102F0000120380910603082E000C990BFC01E95076
:102F1000FA4FE491F0E0EE0FFF1FE351FA4FA59155
:102F2000B491B0930D03A0930C03FC01E55FF94F3E
:102F3000E491E09313038C91E095E823EC9392CD18
:102F40008091FC029091FD02892B31F080911F034A
:102F5000909120030E94E006E0911003F09111038C
:102F6000908180911503809589238083BCCD8FEC5F
:102F7000F3CD8036910591F48091E7029091E802BB
:102F8000409721F580910303813031F480E18093F3
:102F90001E03E2E0E983E4CD8FEAF9CF80349105A6
:102FA000C1F48091E7029091E8028097A9F48091A2
:102FB0000303813031F480E180931E03F2E1F98351
:102FC000CFCD8FECF9CF22E02983CACD32E039830F
:102FD000C7CD42E04983C4CD52E05983C1CDE091D1
:102FE0001003F0911103808190911503892B808348
:102FF000FFCDE981FA818191FA83E9838F3F31F135
:103000002FE330E0281B3109F5E1F29FC001F39F67
:10301000900D11246FE370E00E94C61A66317105AD
:1030200010F065E170E0FB01EE0FFF1FEA54FA4F6C
:10303000C590D49080910001893009F043C0E2EE40
:10304000F5E0149117FF71C0DD24D3940E948A111A
:1030500021E532E03C832B83F12CE12CEB81FC81D8
:103060004191FC83EB834F3F41F050E021E030E0A1
:10307000B70181EE92E00E942906FFEFEF1AFF0AE6
:1030800020E8E216F10451F7DD2059F001E010E0EC
:1030900020E430E050E040E0B10181EE92E00E9497
:1030A00099050E94860F6CE370E080E090E00E943A
:1030B000F5033FEF231A330A40E82416310409F0E0
:1030C0005ECE77CE8F3F09F0BFCF89E080930001BD
:1030D000E2EEF5E014911F3F09F4B6CF113009F488
:1030E000C6C050F0123009F4E1C017FDADCF61E069
:1030F00089E00E949F031FC014BC15BC84B5826088
:1031000084BD85B5816085BDE0E0F6E08491E82F5F
:10311000F0E0EE0FFF1FE351FA4F85919491E4E147
:10312000F6E084918093050210E061E089E00E945E
:103130009F03112319F0123009F033C1F12CE12C57
:1031400060E072E18AE790E0A70196010E94FC1A14
:1031500029013A01DA01C9010197A109B1098F3F9B
:103160009105A105B10509F00CF402C160E472E417
:103170008FE090E0A70196010E94FC1A21503109CE
:1031800041095109123009F0B4C082E02F3F3105E6
:103190004105510509F00CF45BC060E970ED83E076
:1031A00090E0A70196010E94FC1A215031094109C3
:1031B000510983E02F3F31054105510509F00CF419
:1031C00047C068E478EE81E090E0A70196010E9494
:1031D000FC1A215031094109510984E02F3F310582
:1031E00041055105A9F1A4F164E274EF80E090E09B
:1031F000A70196010E94FC1A215031094109510989
:1032000085E02F3F31054105510511F108F162E1DB
:103210007AE780E090E0A70196010E94FC1A215015
:1032200031094109510986E02F3F3105410551051A
:1032300079F070F09AE075946794579447949A9552
:10324000D1F7A3019201215031094109510987E0C9
:103250009091B100987F892B8093B100113009F4CF
:10326000CBC0123009F4DAC01111EECE89C0109231
:10327000800010928100809181008860809381009D
:1032800080918100816080938100E0E0F6E084918C
:10329000E82FF0E0EE0FFF1FE351FA4F8591949174
:1032A000E4E1F6E08491809304023FCF1092B000F5
:1032B0001092B1008091B00082608093B000809144
:1032C000B10081608093B100E0E0F6E08491E82FE6
:1032D000F0E0EE0FFF1FE351FA4F85919491909328
:1032E000030280930202E4E1F6E0849180930102FC
:1032F0001CCF2F3F31054105510509F00CF44FC09B
:1033000068E478EE81E090E0A70196010E94FC1A43
:10331000215031094109510984E0111172CF83E034
:103320002F3F31054105510539F134F162E17AE76A
:1033300080E090E0A70196010E94FC1A215031091B
:103340004109510984E02F3F310541055105A1F0A4
:1033500098F08AE075946794579447948A95D1F7CA
:10336000A3019201215031094109510985E004C0AE
:103370009C0181E011116CCF95B5987F892B85BD9B
:1033800027BD80920E0290920F02A0921002B0927E
:10339000110280916E00826080936E0055CE82E0B3
:1033A000E9CFF12CE12C60E072E18AE790E0A7011F
:1033B00096010E94FC1A215031094109510991E0FE
:1033C00021153105F1E04F0751056CF068E478EE06
:1033D00081E090E0A70196010E94FC1A215031097A
:1033E0004109510993E0113009F038CF80918100F3
:1033F000887F892B809381003093890020938800F7
:1034000080920A0290920B02A0920C02B0920D02DE
:1034100080916F00826080936F0016CE2093B3007E
:103420008092060290920702A0920802B0920902CE
:103430008091700082608093700006CE80911702A8
:1034400081111BC090911D02911117C091E09093C2
:103450001D02E1E5F2E09FEF91938F5F8038E1F785
:103460001092500210924F0280E290E0909302017D
:1034700080930101809351029FCC80911202909120
:103480001302A0911402B0911502A3019201281B0E
:10349000390B4A0B5B0BDA01C9014C97A105B10549
:1034A00008F45DC080913F02811155C080910101F7
:1034B00090910201181619060CF04DC001979093D7
:1034C00002018093010181E09091370291110EC0B9
:1034D00020910101309102012F3331053CF42F5F1F
:1034E0003F4F309302012093010181E090912F0220
:1034F00091110EC020914F02309150021216130606
:103500003CF4215031093093500220934F0281E066
:1035100090912702911121C020914F0230915002C9
:103520002F373105D4F42F5F3F4F30935002209353
:103530004F02409212025092130260921402709253
:103540001502E0914F02F0915002EF5AFD4F809129
:103550000101808331CC80E0B7CF8111EACF80E0D8
:1035600090E0892B09F4CBCB0E940000C8CB8FE1FF
:1035700091E09093E2028093E102809100039091A8
:103580000103009711F00C94BD1B0895AA1BBB1BEF
:1035900051E107C0AA1FBB1FA617B70710F0A61B53
:1035A000B70B881F991F5A95A9F780959095BC0174
:1035B000CD010895A1E21A2EAA1BBB1BFD010DC06F
:1035C000AA1FBB1FEE1FFF1FA217B307E407F507D3
:1035D00020F0A21BB30BE40BF50B661F771F881FAF
:1035E000991F1A9469F760957095809590959B0145
:1035F000AC01BD01CF010895052E97FB1EF4009488
:103600000E94131B57FD07D00E94DA1A07FC03D053
:103610004EF40C94131B50954095309521953F4FD7
:103620004F4F5F4F089590958095709561957F4FAE
:103630008F4F9F4F0895EE0FFF1F0590F491E02DDF
:1036400009940F931F93CF93DF938230910510F469
:1036500082E090E0E0912303F091240330E020E049
:10366000B0E0A0E0309799F42115310509F44AC083
:10367000281B390B24303105D8F58A819B816115CF
:10368000710589F1FB0193838283FE0111C04081A2
:1036900051810281138148175907E0F048175907F3
:1036A00099F4109761F012960C93129713961C934D
:1036B0003296CF01DF91CF911F910F910895009322
:1036C000230310932403F4CF2115310551F0421741
:1036D000530738F0A901DB019A01BD01DF01F801B0
:1036E000C1CFEF01F9CF9093240380932303CDCF73
:1036F000FE01E20FF31F8193919322503109398328
:103700002883D7CF2091210330912203232B41F42A
:10371000209105013091060130932203209321036B
:1037200020910301309104012115310541F42DB799
:103730003EB74091070150910801241B350BE091E1
:103740002103F0912203E217F307A0F42E1B3F0B95
:103750002817390778F0AC014E5F5F4F2417350703
:1037600048F04E0F5F1F5093220340932103819333
:1037700091939FCFF0E0E0E09CCFCF93DF93009751
:10378000E9F0FC01329713821282A0912303B091D9
:103790002403ED0130E020E01097A1F42081318175
:1037A000820F931F2091210330912203281739079C
:1037B00009F061C0F0932203E0932103DF91CF91E0
:1037C0000895EA01CE17DF07E8F54A815B819E0183
:1037D00041155105B1F7E901FB83EA8349915991FC
:1037E000C40FD51FEC17FD0761F48081918102960B
:1037F000840F951FE90199838883828193819B833C
:103800008A83F0E0E0E012968D919C9113970097E7
:10381000B9F52D913C911197CD010296820F931F1E
:1038200020912103309122032817390739F6309768
:1038300051F51092240310922303B0932203A09316
:103840002103BCCFD383C28340815181840F951F54
:10385000C817D90761F44E5F5F4F88819981480F7F
:10386000591F518340838A819B81938382832115D1
:10387000310509F0B0CFF0932403E09323039ECFEA
:10388000FD01DC01C0CF13821282D7CF81E090E02E
:10389000F8940C94521CDC0101C06D9341505040CF
:1038A000E0F7089513E0CDE1D3E004C0FE010E94EB
:0E38B0001B1B2196CE31D107C9F7F894FFCF2C
:1038BE00FF200000002503800000000000590D2CA1
:1038CE000D2311BF0B250D120D030D000000001E60
:1038DE0009550423119C0C2906BF0BE80BC00BDC09
:1038EE000BD00BEF0BBF0BE406CD109905E20508CC
:0A38FE000BEB0A730A140A0D0A000E
:00000001FF
